S0100000496E7474727570742E73726563AA
S11300000C942A000C9497000C9434000C94340043
S11300100C9434000C9434000C9434000C9434008C
S11300200C9434000C9434000C9434000C9434007C
S11300300C9434000C9434000C9434000C9434006C
S11300400C9434000C9434000C9434000C9434005C
S11300500C94340011241FBECFE5D4E0DEBFCDBF25
S11300600E9436000C94BF000C94000011BA8FEF6C
S113007084BB82E085BF80E48BBF789481E085BB3C
S11300802FE78AE196E0215080409040E1F700C0DC
S1130090000082E085BB2FE78AE196E02150804092
S11300A09040E1F700C0000084E085BB2FE78AE1BF
S11300B096E0215080409040E1F700C0000088E0C5
S11300C085BB2FE78AE196E0215080409040E1F71C
S11300D000C0000080E185BB2FE78AE196E0215053
S11300E080409040E1F700C0000080E285BB2FE72C
S11300F08AE196E0215080409040E1F700C0000082
S113010080E485BB2FE78AE196E02150804090404F
S1130110E1F700C0000080E885BB2FE78AE196E0A4
S1130120215080409040E1F700C00000A7CF1F920B
S11301300F920FB60F9211242F933F938F939F9397
S113014085B39FEF95BB2FEF39E698E121503040FE
S11301509040E1F700C0000085BB2FE73AE186E05C
S1130160215030408040E1F700C000009F918F9102
S11301703F912F910F900FBE0F901F901895F894F8
S1050180FFCFAB
S9030000FC
